{
  "contractName": "Storage",
  "abi": [
    {
      "constant": true,
      "inputs": [],
      "name": "testNumber",
      "outputs": [
        {
          "name": "",
          "type": "uint256"
        }
      ],
      "payable": false,
      "stateMutability": "view",
      "type": "function"
    },
    {
      "constant": true,
      "inputs": [],
      "name": "testString",
      "outputs": [
        {
          "name": "",
          "type": "string"
        }
      ],
      "payable": false,
      "stateMutability": "view",
      "type": "function"
    },
    {
      "inputs": [],
      "payable": false,
      "stateMutability": "nonpayable",
      "type": "constructor"
    }
  ],
  "bytecode": "0x608060405234801561001057600080fd5b5060016000819055506040518060400160405280601481526020017f416b7368617927732053746172746572204b69740000000000000000000000008152506001908051906020019061006492919061006a565b5061010f565b828054600181600116156101000203166002900490600052602060002090601f016020900481019282601f106100ab57805160ff19168380011785556100d9565b828001600101855582156100d9579182015b828111156100d85782518255916020019190600101906100bd565b5b5090506100e691906100ea565b5090565b61010c91905b808211156101085760008160009055506001016100f0565b5090565b90565b6101ac8061011e6000396000f3fe608060405234801561001057600080fd5b50600436106100365760003560e01c80630d1972f31461003b578063fb8f0f5914610059575b600080fd5b6100436100dc565b6040518082815260200191505060405180910390f35b6100616100e2565b6040518080602001828103825283818151815260200191508051906020019080838360005b838110156100a1578082015181840152602081019050610086565b50505050905090810190601f1680156100ce5780820380516001836020036101000a031916815260200191505b509250505060405180910390f35b60005481565b60018054600181600116156101000203166002900480601f0160208091040260200160405190810160405280929190818152602001828054600181600116156101000203166002900480156101785780601f1061014d57610100808354040283529160200191610178565b820191906000526020600020905b81548152906001019060200180831161015b57829003601f168201915b50505050508156fea165627a7a72305820e537460ef022574b1383afc36e713be43d1a4aa15cc098655d75cb66fd22a2d70029",
  "source": "pragma solidity >=0.4.22 <0.6.0;\ncontract Storage {\n    uint public testNumber ;\n    string public testString;\n\n    constructor() public {\n        testNumber = 1;\n        testString = \"Akshay's Starter Kit\";\n    }\n}\n",
  "sourcePath": "/home/akshay/Documents/bc/starter_kit/src/blockchain/contracts/Storage.sol",
  "compiler": {
    "name": "solc",
    "version": "0.5.8+commit.23d335f2.Emscripten.clang"
  },
  "schemaVersion": "3.0.11",
  "updatedAt": "2019-07-26T05:41:03.416Z",
  "devdoc": {
    "methods": {}
  },
  "userdoc": {
    "methods": {}
  }
}